:100000000C94E0000C94C3020C94EA020C940801D6
:100010000C9408010C9408010C9408010C9408013C
:100020000C9408010C9408010C9408010C9408012C
:100030000C9408010C9408010C9408010C9408011C
:100040000C9411030C9408010C9408010C94080101
:100050000C9408010C9408010C9408010C940801FC
:100060000C94360F0C9408010000000800020100F7
:100070000003040700000000000000000102040863
:100080001020408001020408102001020408102002
:10009000040404040404040402020202020203032E
:1000A00003030303000000002300260029000000D2
:1000B0000000250028002B0000000000240027007D
:1000C0002A0000407A10F35A00A0724E180900105E
:1000D000A5D4E80000E87648170000E40B540200BD
:1000E00000CA9A3B000000E1F505000080969800E8
:1000F000000040420F000000A08601000000102711
:1001000000000000E80300000000640000000000A0
:100110000A00000000000100000000002C76D888D2
:10012000DC674F0823DFC1DFAE59E1B1B796E5E3E5
:10013000E453C63AE651997696E8E6C28426EB89FE
:100140008C9B62ED407C6FFCEFBC9C9F40F2BAA59B
:100150006FA5F490055A2AF75C936B6CF9676DC133
:100160001BFCE0E40D47FEF520E6B500D0ED902E37
:100170000300943577050080841E080000204E0A95
:10018000000000C80C333333330F986E12831141D3
:10019000EF8D2114893BE65516CFFEE6DB18D1849E
:1001A0004B381BF77C1D901DA4BBE42420328472C5
:1001B0005E228100C9F124ECA1E53D279E024C0E90
:1001C00011241FBECFEFD8E0DEBFCDBF11E0A0E00D
:1001D000B1E0E0E1F4E302C005900D92A238B1076E
:1001E000D9F722E0A2E8B1E001C01D92A43CB20719
:1001F000E1F711E0C0ECD1E004C02297FE010E94BB
:10020000F319CC3BD107C9F70E9422050C94561371
:100210000C940000EF92FF920F931F93CF93DF9304
:10022000EC0109E02CE04BE06AE00E945E0522E070
:1002300040E160E2CE018E960E94CE0B80E190E01C
:100240000E9431057E012FE4E20EF11CF70191833B
:100250008083C0E0D0E0F701008111810C0F1D1FE9
:1002600088E090E00E943105F80191838083229616
:10027000C031D10581F7DF91CF911F910F91FF9090
:10028000EF9008950F931F93CF93DF938C01EC01B0
:10029000AE96CE010E94EE0CCE010E94430CCE0120
:1002A0000E94F70B67E7C8010E944007811109C04F
:1002B000CE010E94430C64E171E0CE010E940F0563
:1002C000FFCF64EAC8010E940C0669E271E0CE012A
:1002D0000E94090560ED77E080E090E00E948A03CB
:1002E00081E0DF91CF911F910F9108950F931F939C
:1002F000CF93DF93EC0146E261E00E94FB05CE0163
:100300000E94690920E030E048EC52E40E9463104A
:10031000FE01EF5AFF4F60837183828393838E01C6
:100320000B591F4F21E046E00E940E12CE010E94A1
:1003300004080C50110922E045E00E940E12CE0183
:100340000E9483080A5F1F4F22E045E00E940E12C0
:10035000DF91CF911F910F910895CF92DF92EF928D
:10036000FF920F931F93CF93DF93CDB7DEB7A09784
:100370000FB6F894DEBF0FBECDBF8C01815A9F4FE0
:100380009F938F9306979F938F9384E391E09F931E
:100390008F936E0181E1C80ED11CDF92CF920E9433
:1003A0005913C8018B599F4F9F938F938EE391E010
:1003B0009F938F93CE0101967C01FF928F930E94B1
:1003C0005913025D1F4F40E060E0C8010E94510CCC
:1003D000B601C8010E94090541E060E0C8010E9421
:1003E000510CB701C8010E9409050FB6F894DEBF91
:1003F0000FBECDBFA0960FB6F894DEBF0FBECDBF27
:10040000DF91CF911F910F91FF90EF90DF90CF90F0
:1004100008951F93CF93DF93EC01AE9640E060E028
:10042000CE010E94510C68E471E0CE010E940905E2
:1004300010E064E0610F41E0CE010E94510C612F99
:10044000CE010E94860C1F5F183099F7DF91CF9183
:100450001F91089581E08093060180EF98EDAFEF42
:10046000BFEF8093820190938301A0938401B093A6
:100470008501089562E370E080E090E00E948A03C5
:1004800080910701882319F0813029F0089586E8CA
:1004900091E00C94AD0186E891E00C94090262E0D1
:1004A00082E00E94330440E050E06AE272E080E0C3
:1004B0000E94A30286E891E00C9442010F931F93DF
:1004C00086E891E00E94760180910601882379F008
:1004D000809107018F5F809307018091070182302F
:1004E00010F0109207010E943A02109206010E9439
:1004F0005B036093820170938301809384019093E6
:1005000085010E945B03009182011091830120917B
:10051000840130918501601B710B820B930B60315C
:1005200077428105910568F380910601811103C02E
:1005300081E0809307011F910F91089586E891E073
:100540000C940A0108958230E8F4E82FF0E0EE0FF1
:10055000FF1FE85FFE4F71836083813041F080911F
:1005600069008C7F842B80936900E89A08958091BC
:100570006900440F551F440F551F837F842B8093C0
:100580006900E99A08951F920F920FB60F921124F5
:100590002F933F934F935F936F937F938F939F938B
:1005A000AF93BF93EF93FF93E0910801F09109019E
:1005B0000995FF91EF91BF91AF919F918F917F919D
:1005C0006F915F914F913F912F910F900FBE0F90C0
:1005D0001F9018951F920F920FB60F9211242F9310
:1005E0003F934F935F936F937F938F939F93AF93BB
:1005F000BF93EF93FF93E0910A01F0910B010995EE
:10060000FF91EF91BF91AF919F918F917F916F91EA
:100610005F914F913F912F910F900FBE0F901F90C0
:1006200018951F920F920FB60F9211242F933F939C
:100630008F939F93AF93BF938091F4019091F501B5
:10064000A091F601B091F7013091F30123E0230F5F
:100650002D3720F40196A11DB11D05C026E8230FFA
:100660000296A11DB11D2093F3018093F401909394
:10067000F501A093F601B093F7018091F8019091F4
:10068000F901A091FA01B091FB010196A11DB11DE4
:100690008093F8019093F901A093FA01B093FB01C4
:1006A000BF91AF919F918F913F912F910F900FBE6E
:1006B0000F901F9018952FB7F8946091F4017091E6
:1006C000F5018091F6019091F7012FBF08953FB792
:1006D000F8948091F8019091F901A091FA01B091FC
:1006E000FB0126B5A89B05C02F3F19F00196A11D5F
:1006F000B11D3FBF6627782F892F9A2F620F711D7A
:10070000811D911D42E0660F771F881F991F4A9532
:10071000D1F708958F929F92AF92BF92CF92DF92BE
:10072000EF92FF926B017C010E9467034B015C0119
:10073000C114D104E104F104F1F00E94F00C0E9414
:100740006703681979098A099B09683E7340810526
:10075000910570F321E0C21AD108E108F10888EE92
:10076000880E83E0981EA11CB11CC114D104E104C1
:10077000F10429F7DDCFFF90EF90DF90CF90BF908D
:10078000AF909F908F9008958230910538F0880F38
:10079000991F880F991F05970197F1F7089578948D
:1007A00084B5826084BD84B5816084BD85B5826076
:1007B00085BD85B5816085BDEEE6F0E08081816014
:1007C0008083E1E8F0E01082808182608083808114
:1007D00081608083E0E8F0E0808181608083E1EBEC
:1007E000F0E0808184608083E0EBF0E080818160D4
:1007F0008083EAE7F0E0808184608083808182608A
:100800008083808181608083808180688083109272
:10081000C1000895833081F028F4813099F082304E
:10082000A1F008958730A9F08830B9F08430D1F470
:10083000809180008F7D03C0809180008F778093AE
:100840008000089584B58F7702C084B58F7D84BD04
:1008500008958091B0008F7703C08091B0008F7DA4
:100860008093B0000895CF93DF9390E0FC01E458AB
:10087000FF4F2491FC01E057FF4F8491882349F1F9
:1008800090E0880F991FFC01E854FF4FA591B491A7
:1008900082559F4FFC01C591D4919FB7611108C04B
:1008A000F8948C91209582238C93888182230AC0AE
:1008B000623051F4F8948C91322F309583238C93CD
:1008C0008881822B888304C0F8948C91822B8C932E
:1008D0009FBFDF91CF9108950F931F93CF93DF9325
:1008E0001F92CDB7DEB7282F30E0F901E859FF4F4E
:1008F0008491F901E458FF4F1491F901E057FF4F3B
:1009000004910023C9F0882321F069830E940A041E
:100910006981E02FF0E0EE0FFF1FE255FF4FA59138
:10092000B4919FB7F8948C91611103C01095812305
:1009300001C0812B8C939FBF0F90DF91CF911F91AE
:100940000F910895CF93DF93282F30E0F901E859F4
:10095000FF4F8491F901E458FF4FD491F901E0571A
:10096000FF4FC491CC2391F081110E940A04EC2F17
:10097000F0E0EE0FFF1FEC55FF4FA591B4912C91C5
:100980002D2381E090E021F480E002C080E090E03F
:10099000DF91CF910895CF92DF92EF92FF920F9364
:1009A0001F93CF93DF937C016A01EB0100E010E01D
:1009B0000C151D0571F06991D701ED91FC91019025
:1009C000F081E02DC7010995892B19F00F5F1F4FAA
:1009D000EFCFC801DF91CF911F910F91FF90EF9062
:1009E000DF90CF9008956115710581F0DB010D90C6
:1009F0000020E9F7AD0141505109461B570BDC01BE
:100A0000ED91FC910280F381E02D099480E090E06B
:100A100008950C94F30468E571E00C94F3040F93CB
:100A20001F93CF93DF93EC010E94F3048C01CE015E
:100A30000E940B05800F911FDF91CF911F910F91A5
:100A4000089508950E94CF030E9421050E944F023D
:100A5000C0E0D0E00E945E022097E1F30E94000017
:100A6000F9CF0C942F122091FE01222399F03FB769
:100A7000F8942091FE01213059F42DB32093FC010C
:100A80004DB32091FD01209524232DBB3FBF02C013
:100A90003093FC018CBD9DBD08958091FE0188239B
:100AA00061F09FB7F8942091FE018091FC01213004
:100AB00019F48DBB9FBF08958FBF08950F93FC015C
:100AC00061874287238704870F910895AF92BF9271
:100AD000DF92EF92FF920F931F93CF93DF931F92BA
:100AE000CDB7DEB75C01D62EFC0184858F3F39F48B
:100AF0006EBD00000DB407FEFDCF8EB52AC007E025
:100B000010E040E0EE24E394F12C440F60E0F501A6
:100B1000848549830E946C049701002E01C0220F36
:100B20000A94EAF76D2D6223F50182850E946C0418
:100B300061E0F50184850E946C04F50183850E94C3
:100B4000A2044981892B09F0416001501109E8F69E
:100B5000842F0F90DF91CF911F910F91FF90EF9015
:100B6000DF90BF90AF9008950F931F93CF93DF93C3
:100B7000EC01062F142F89858F3FB9F4688180E03E
:100B800092E00E94C80D602F80E092E00E947F0DED
:100B9000612F80E092E00E947F0D80E092E0DF9183
:100BA000CF911F910F910C94490E8C858F3F21F4AA
:100BB00082E591E00E94330560E089850E946C0423
:100BC000602F6F77CE010E946605612FCE010E94D3
:100BD000660561E089850E946C048C858F3F31F445
:100BE000DF91CF911F910F910C944D05DF91CF9123
:100BF0001F910F9108951F93CF93DF93EC01142F52
:100C0000462F62EF0E94B405412F64EFCE01DF91C1
:100C1000CF911F910C94B405462F65EF0C94B40549
:100C20001F93CF93DF93EC01162F89858F3FD1F46B
:100C3000688180E092E00E94C80D612F80E092E020
:100C40000E947F0D80E092E00E94490E41E06881A1
:100C500080E092E00E94460E80E092E00E942F0D1C
:100C6000182F1EC08C858F3F21F482E591E00E94F1
:100C7000330560E089850E946C04612F6068CE01B5
:100C80000E94660560E0CE010E946605182F61E0B3
:100C900089850E946C048C858F3F11F40E944D055C
:100CA000812FDF91CF911F9108950F931F93CF93C1
:100CB000DF93EC01162F89858F3F19F5688180E05D
:100CC00092E00E94C80D612F80E092E00E947F0DAB
:100CD00080E092E00E94490E42E0688180E092E06C
:100CE0000E94460E80E092E00E942F0DC82F80E007
:100CF00092E00E942F0D00E010E01C2F082B192B12
:100D000026C08C858F3F21F482E591E00E94330557
:100D100060E089850E946C04612F6068CE010E94AA
:100D2000660560E0CE010E946605082F60E0CE01F6
:100D30000E94660510E0102F0027082B61E08985CE
:100D40000E946C048C858F3F11F40E944D05C801F0
:100D5000DF91CF911F910F9108950E94550698271A
:100D60008927982708951F93CF93DF93EC0168E8B4
:100D70000E94AD069E878D876AE8CE010E94AD066F
:100D8000988B8F876CE8CE010E94AD069A8B898B79
:100D90006EE8CE010E94AD069C8B8B8B60E9CE0184
:100DA0000E94AD069E8B8D8B62E9CE010E94AD063E
:100DB000988F8F8B64E9CE010E94AD069A8F898F40
:100DC00066E9CE010E94AD069C8F8B8F68E9CE014B
:100DD0000E94AD069E8F8D8F6AE9CE010E94AD06FE
:100DE00098A38F8F6CE9CE010E94AD069AA389A3C8
:100DF0006EE9CE010E94AD069CA38BA361EACE01F1
:100E00000E9410068DA361EECE010E94AD069FA345
:100E10008EA363EECE010E94100688A764EECE0179
:100E20000E941006182F65EECE010E9410068F70EA
:100E300040E1149F90011124282B3AA729A766EEC0
:100E4000CE010E941006182F65EECE010E941006FA
:100E5000282F30E044E0359527954A95E1F740E1A9
:100E6000149FC0011124282B392B3CA72BA767EE18
:100E7000CE010E9410068DA7DF91CF911F9108959A
:100E8000CF93DF93EC01688389858F3F29F480E05D
:100E900092E00E94BE0D18C061E00E946C0461E007
:100EA00089850E9433048C858F3F19F40E94F10CD0
:100EB0000BC061E00E94330461E08A850E94330424
:100EC00060E08B850E94330460EDCE010E94100625
:100ED000803629F4CE010E94B30681E001C080E093
:100EE000DF91CF9108958F929F92AF92BF92CF9250
:100EF000DF92EF92FF921F93CF93DF93EC01162FB7
:100F000089858F3F09F03FC0688180E092E00E94B0
:100F1000C80D612F80E092E00E947F0D80E092E09A
:100F20000E94490E43E0688180E092E00E94460EF4
:100F300080E092E00E942F0D4C01AA2497FCA0941F
:100F4000BA2CBA2CA92C982C882480E092E00E941C
:100F50002F0D6C01EE24D7FCE094FE2CC828D92874
:100F6000EA28FB28FE2CED2CDC2CCC2480E092E03F
:100F70000E942F0DAA2797FDA095BA2FC82AD92A1B
:100F8000EA2AFB2A33C08C858F3F21F482E591E069
:100F90000E94330560E089850E946C04612F6068BF
:100FA000CE010E94660560E0CE010E946605C82E53
:100FB000D12CE12CF12CFE2CED2CDC2CCC2460E08F
:100FC000CE010E946605C82AFE2CED2CDC2CCC2418
:100FD00060E0CE010E946605C82A61E089850E9412
:100FE0006C048C858F3F11F40E944D05C701B6013A
:100FF000DF91CF911F91FF90EF90DF90CF90BF9046
:10100000AF909F908F9008958F929F92AF92BF92D2
:10101000CF92DF92EF92FF92CF93DF93EC016AEFD2
:101020000E947307CD84DE84E12CF12C872E982E4C
:10103000A92EBB24A7FCBA948C189D08AE08BF0843
:101040009B01AC01A7E05595479537952795AA9543
:10105000D1F7CC0CDD1CEE1CFF1C2C193D094E09F0
:101060005F09AF85B8890E9464186B017C018BE031
:10107000F594E794D794C7948A95D1F7A501940184
:10108000C501B4010E9449189B01AC019CE0559533
:101090004795379527959A95D1F7A989BA890E94DE
:1010A00064182EE095958795779567952A95D1F7E1
:1010B000C60ED71EE81EF91ECD82DE82EF82F886AC
:1010C000A5E0B0E0A70196010E94591860587F4F33
:1010D0008F4F9F4F672F782F892F992787FD9A95DC
:1010E0000E94D11020E030E048EC52E40E946310EE
:1010F000DF91CF91FF90EF90DF90CF90BF90AF90B6
:101100009F908F9008954F925F926F927F928F92EF
:101110009F92AF92BF92CF92DF92EF92FF92CF93C6
:10112000DF93EC010E9404086DEFCE010E9455068A
:101130008D809E80AF80B8842CE2921A21E0A20AB2
:10114000B1086C01E12CF12C5EE0CC0CDD1CEE1C36
:10115000FF1C5A95D1F749A55AA5662757FD6095FA
:10116000762FE4E1440F551F661F771FEA95D1F7EC
:10117000C41AD50AE60AF70AABA5BCA5A5019401D5
:101180000E946418C61AD70AE80AF90A30E4D30E96
:10119000E11CF11CFFE0F594E794D794C794FA950D
:1011A000D1F7ADA5BB27A7FDB095A50194010E947D
:1011B00064182B013C01AAE07594679457944794F6
:1011C000AA95D1F7A8A5B0E00E945918BBE0959563
:1011D000879577956795BA95D1F770588F4F9F4F40
:1011E000A30192010E9449189B01AC018AE0559528
:1011F0004795379527958A95D1F7405E5F4FAEA109
:10120000BFA10E946418705E8F4F9F4F2EE095958E
:101210008795779567952A95D1F7A70196010E9442
:1012200049186B017C013FE0959587957795679507
:101230003A95D1F79B01AC010E9449189B01AC0182
:1012400067E055954795379527956A95D1F7ADA1F4
:10125000B0E00E945918E4E09595879577956795D9
:10126000EA95D1F7A7019601261B370B480B590BBE
:10127000DA01C90157FF03C080E090E0DC01813052
:101280009105A10539E1B30724F080E090E0A0E0EA
:10129000B9E1BC01CD014CE09595879577956795AF
:1012A0004A95D1F70E94D11020E030E040E85AE39F
:1012B0000E94AB11DF91CF91FF90EF90DF90CF9024
:1012C000BF90AF909F908F907F906F905F904F9066
:1012D00008952F923F924F925F926F927F928F92DA
:1012E0009F92AF92BF92CF92DF92EF92FF920F93B5
:1012F0001F93CF93DF93CDB7DEB7A3970FB6F894C4
:10130000DEBF0FBECDBF9BA38AA30E94040867EF78
:101310008AA19BA10E9473072B013C01EAA1FBA1BA
:1013200085819681A781B0856C017D01FF0CCC0879
:10133000DC2C76019C01AD016C2D7C2D8C2D9C2D1F
:10134000345F414051096109710981099109298777
:101350003A874B875C871B014C0159016A017B016D
:101360008C010E946C182F8B388F498F5A8F6B8F8E
:101370007C8F8D8F9E8FAAA1BBA15D96BC91BF8FE4
:10138000EAA1FBA1F68DFD87AAA1BBA15B96BC914A
:10139000B8A3EAA1FBA1F48DFE87AAA1BBA159962F
:1013A000BC91B9A3EAA1FBA1F28DFF87AAA1BBA1C1
:1013B0005696BC9056975596AC901B2D110F110B5D
:1013C000C12ED12EE12EF12E012F29853A854B8594
:1013D0005C85B101C4010E946C180CE00E949C194C
:1013E0002983388B498B5A8B6B8B7C8B8D8B9E8B97
:1013F000EAA1FBA1B08CA7881B2D110F110BC12EE8
:10140000D12EE12EF12E012F2F89388D498D5A8D45
:101410006B8D7C8D8D8D9E8D0E946C1808E00E94D6
:10142000B519A980B888C988DA88EB88FC880D8945
:101430001E890E94D31970588F4F9F4FAAA1BBA13C
:101440005396ED91FC9154975F01C12CD12CE12C66
:10145000F12C8701E983BA82CB82DC82ED82FE82A5
:101460000F831887C12CD12CE12CF12C00E010E067
:101470000E946C1801E20E94B5192983388B498BB0
:101480005A8B6B8B7C8B8D8B9E8BA0E00E94E51919
:1014900009F468C1AF8C1D85110F110BBD84C12EDD
:1014A000D12EE12EF12E012F2F89388D498D5A8DA5
:1014B0006B8D7C8D8D8D9E8D0E946C182D873F8B42
:1014C000488F598F6A8F7B8F8C8F9D8FA8A01E8528
:1014D000110F110BBE84C12ED12EE12EF12E012F42
:1014E00029853A854B855C85B101C4010E946C1841
:1014F00001E10E949C1959016A017B018C012D8533
:101500003F89488D598D6A8D7B8D8C8D9D8D0E9474
:10151000D319F9014B875C871B014C01A4E075943A
:10152000679457944794AA95D1F780E090E0A0E1A2
:10153000B0E084199509A609B7096C017D01FF0C7B
:10154000CC08DC2C76019C01AD016C2D7C2D8C2D02
:101550009C2D0FE10E949C192901B42FA52F6D87A6
:101560007E87782E692E29A19F85990F990B3F853B
:10157000492F592F692F792F892F03E20E949C1937
:1015800059016A017B018C019F014B855C85B1018A
:10159000C4010E94D31959016A017B018C01920197
:1015A0004B2F5A2F6D857E85872D962D0E94DC1935
:1015B0004901542E652EB62FA72FF82FE92F03E0EF
:1015C0000E949C195401C52CD62CEB2EFA2E0F2FFD
:1015D0001E2F0E94DC1959016A017B01782E192FF8
:1015E00003E00E949C19072D0E94DC1903E00E9471
:1015F0009C195401C52CD62CEB2EFA2E0F2F1E2F22
:101600000E94DC1902E00E949C190F2F0E94DC1935
:1016100001E00E949C190F2F0E94DC19A980B88854
:10162000C988DA88EB88FC880D891E890E94C71852
:1016300029873A874B875C8769837D878E879F8759
:101640000DE00E94B519922E832E742E652E562E13
:10165000472E382E292EAAA1BBA194963C9194978F
:1016600093962C91932F990F990BA92CB82CC72CDA
:10167000D62CE52CF42C032D122D492F592F692F30
:10168000792F892F0E946C180E946C1809E10E9422
:10169000B51959016A017B018C0129853A854B8571
:1016A0005C8569817D858E859F850E94D31919018E
:1016B0002A013B014C01EAA1FBA132A121A1932FF8
:1016C000990F990BA984BA84CB84DC84E980FD84CA
:1016D0000E851F85492F592F692F792F892F0E9439
:1016E0006C1803E10E94B51959016A017B018C0154
:1016F0009101A201B301C4010E94D31908E00E9424
:10170000B519522E632E742E852E962EF72FE82FA4
:10171000492EAAA1BBA190963C9190975F962C91DF
:10172000932F990F990B492F592F692F792F892FB3
:1017300004E00E949C1959016A017B018C01252D4E
:10174000362D472D582D692D7F2F8E2F942D0E94D9
:10175000D3190E94CB1020E030E040E85BE30E9408
:10176000AB1103C060E070E0CB01A3960FB6F89414
:10177000DEBF0FBECDBFDF91CF911F910F91FF90C4
:10178000EF90DF90CF90BF90AF909F908F907F9021
:101790006F905F904F903F902F900895FC011382BF
:1017A00012828DE691E09183808364834187228752
:1017B000138608951F93CF93DF93EC01162F6C814E
:1017C00080E092E00E94C80DE0910002F0910102D9
:1017D0006B85612B0190F081E02D80E092E009950E
:1017E00080E092E0DF91CF911F910C94490E28E0A8
:1017F000FC01238760E00C94DA0B1F93CF93DF93F7
:10180000EC01162F64600E94DA0B81E090E00E94E8
:10181000C403612F6B7FCE010E94DA0B82E390E05C
:10182000DF91CF911F910C94C4031F93CF93DF934B
:10183000EC01162F0E94DA0B612FCE01DF91CF91C0
:101840001F910C94FD0BEF92FF921F93CF93DF93A8
:101850001F92CDB7DEB77C01162F607F642B4983C2
:101860000E94150C612F6295607F4981642BC7012E
:101870000F90DF91CF911F91FF90EF900C94150C7A
:1018800040E00C94230C61E00E94400C80ED97E056
:101890000C94C40362E00E94400C80ED97E00C942D
:1018A000C403CF93DF93CDB7DEB728970FB6F89474
:1018B000DEBF0FBECDBF28E0ECE0F1E0DE01119607
:1018C00001900D922A95E1F7FC012085241710F470
:1018D0004FEF420FFE013196E40FF11DE40FF11DB1
:1018E0002081260F2068622F28960FB6F894DEBF5D
:1018F0000FBECDBFDF91CF910C94400CFC016681EF
:10190000262F246026836C600C94400C41E00E94DA
:10191000230C81E090E00895CF93DF93EC014230F7
:1019200018F08D8188608D834887222329F041300B
:1019300019F48D8184608D8380E593EC0E94C4034B
:101940006B85CE010E94DA0B68EE73E080E090E0D8
:101950000E948A0360E3CE010E94150C84E991E1A4
:101960000E94C40360E3CE010E94150C84E991E15A
:101970000E94C40360E3CE010E94150C86E990E04A
:101980000E94C40360E2CE010E94150C6D8160626A
:10199000CE010E94400C84E08E83CE010E947E0C1A
:1019A000CE010E94430C82E08F8366E0CE010E944C
:1019B000400CCE01DF91CF910C944A0CCF93DF9372
:1019C000EC0180E092E00E94BE0D1D8220E04A857D
:1019D0006985CE01DF91CF910C948C0C0C94DE0CB8
:1019E0000895CF93CFB7F8948091FF01811127C05C
:1019F000EAE9F0E08491E6E8F0E09491E82FF0E085
:101A0000EE0FFF1FE854FF4FA591B4918C918923ED
:101A100021F461E08AE00E946C0461E08AE00E94A7
:101A200033048CB580618CBD8CB580648CBD61E065
:101A30008DE00E94330461E08BE00E9433048091CA
:101A4000FF018F5F8093FF01CFBFCF9108958091F9
:101A5000300290E020913102821B9109089520917B
:101A6000310280913002281750F4E22FF0E0EE5C52
:101A7000FD4F808190E02F5F2093310208958FEF1A
:101A80009FEF0895E091310280913002E81730F421
:101A9000F0E0EE5CFD4F808190E008958FEF9FEFC6
:101AA00008950895CF92DF92EF92FF920F931F93C4
:101AB000CF93DF937C01CB018A0120910C0222237A
:101AC00089F0EB016B01C40ED51ECC15DD0569F064
:101AD0006991D701ED91FC910190F081E02DC70152
:101AE0000995F3CF642F0E940D0FC801DF91CF91AC
:101AF0001F910F91FF90EF90DF90CF900895CF93BB
:101B0000DF931F92CDB7DEB7698320910C022223A9
:101B1000D1F020910D02203240F021E030E0FC01B4
:101B20003383228380E090E015C080910E02E82F7D
:101B3000F0E0E15FFD4F998190838F5F80930E020B
:101B400080930D0205C061E0CE0101960E940D0F49
:101B500081E090E00F90DF91CF910895FC01138216
:101B6000128248EE53E060E070E044835583668360
:101B7000778385E791E09183808308951092310205
:101B80001092300210920E0210920D020C94500E20
:101B900081E080930C0260932F0210920E0210924B
:101BA0000D0208950F93062F21E040910D026FE082
:101BB00072E080912F020E94B60E10920E021092D7
:101BC0000D0210920C020F9108958F929F92AF9286
:101BD000BF92CF92DF92EF92FF920F931F93CF931A
:101BE000DF93EC01F62ED42E48015901EE2019F1B5
:101BF0000E94C80D1E2D143008F013E01150B8F0EB
:101C0000E881F98128E0129FB0011124A501940117
:101C100004C056954795379527956A95D2F7CA011E
:101C2000B9010190F081E02DCE010995E7CF60E088
:101C3000CE010E94D20D4D2D413208F040E22C2DF4
:101C400062E372E08F2D0E946E0E1092310280933B
:101C50003002DF91CF911F910F91FF90EF90DF90B5
:101C6000CF90BF90AF909F908F900895CF92EF92BA
:101C70000F931F93C22EE12C00E010E098010E9408
:101C8000E50D1F910F91EF90CF90089521E00C94F6
:101C9000360E61E00C94D20D80E092E00C94AE0D13
:101CA0001092BF0281E08093BD021092BC0261E0FD
:101CB00082E10E946C0461E083E10E946C04E9EB24
:101CC000F0E080818E7F808380818D7F808388E4B7
:101CD0008093B80085E48093BC000895413208F0F9
:101CE00043C09091BF029111FCCF91E09093BF024D
:101CF0002093BD022FEF2093520210929702240FDF
:101D0000209396029093BE029091BE02880F892B79
:101D10008093BE028091BC02813061F41092BC02BB
:101D20008091BE028093BB008091BC0083FDF8CF00
:101D300085EC01C085EE8093BC008091BF028130AC
:101D4000E1F380919702841710F44091970228E9FB
:101D500032E0FB01D9018A2F821B841718F48D9180
:101D60008193F9CF842F089580E008950F93413235
:101D700008F04AC09091BF029111FCCF92E090937D
:101D8000BF020093BD029FEF909352021092970200
:101D900040939602FB0168E972E0DB019A2F961BE3
:101DA000941718F491919D93F9CF1092BE029091DF
:101DB000BE02880F892B8093BE028091BC028130C5
:101DC00061F41092BC028091BE028093BB008091AE
:101DD000BC0083FDF8CF85EC01C085EE8093BC008C
:101DE000222321F08091BF028230E1F380915202E0
:101DF0008F3F61F080915202803251F08091520207
:101E0000803341F483E007C081E005C080E003C077
:101E100082E001C084E00F910895613298F420912E
:101E2000BF02243089F460937402FC0186E792E0DB
:101E3000DC012A2F281B261718F421912D93F9CFA6
:101E400080E0089581E0089582E0089585ED809313
:101E5000BC008091BC0084FDFCCF1092BF020895AD
:101E600085EC8093BC001092BF0208951F920F92E0
:101E70000FB60F9211242F933F934F935F936F935D
:101E80007F938F939F93AF93BF93EF93FF93809133
:101E9000B900887F803609F49EC078F5883209F44D
:101EA0005DC090F4803109F456C038F4882309F4F9
:101EB000F5C0883009F44FC0F5C0883109F44EC030
:101EC000803209F45FC0EEC0803409F46AC058F46F
:101ED000803309F457C0883309F0E4C0809352027C
:101EE0000E94300FDFC0803509F44FC0883509F4F7
:101EF0005DC0883409F0D6C0D3C0883909F4C4C0A5
:101F0000A8F4883709F467C038F4883609F463C048
:101F1000803709F460C0C6C0883809F4B5C080397C
:101F200009F45FC0803809F0BDC05BC0803B09F494
:101F300083C038F4803A09F466C0883A09F47CC05A
:101F4000B1C0803C09F4A4C0883C09F4A1C0883B1E
:101F500009F487C0A7C08091BE0210C0909197027B
:101F600080919602981770F5E091970281E08E0FAC
:101F700080939702F0E0E856FD4F80818093BB008C
:101F800085EC83C0809352028BC0E091970281E080
:101F90008E0F809397028091BB00F0E0E856FD4FD2
:101FA000808390919702809196026BC0E091970296
:101FB00081E08E0F809397028091BB00F0E0E8569D
:101FC000FD4F80838091BD0281116AC081E08093C2
:101FD000BC0284EA5EC083E08093BF021092530289
:101FE000CFCF80915302803208F04EC0E09153026F
:101FF00081E08E0F809353028091BB00F0E0EC5A99
:10200000FD4F8083BDCF0E94300F809153028032FC
:1020100030F4E0915302F0E0EC5AFD4F10826091F1
:10202000530270E0E091B802F091B90284E592E0C9
:1020300009951092530236C084E08093BF0210923B
:10204000750210927402E091BA02F091BB020995F8
:1020500080917402811105C081E080937402109216
:102060007602E091750281E08E0F80937502F0E0B8
:10207000EA58FD4F80818093BB009091750280915A
:102080007402981708F47CCF85E88093BC000AC0DE
:1020900085EC8093BC001092BF0204C010925202E3
:1020A0000E94260FFF91EF91BF91AF919F918F9169
:1020B0007F916F915F914F913F912F910F900FBE44
:1020C0000F901F9018950CD00CC104D140F0FBD09C
:1020D00030F021F45F3F19F0DDC0511136C1E0C08E
:1020E00011D198F39923C9F35523B1F3951B550BDF
:1020F000BB27AA2762177307840738F09F5F5F4FDB
:10210000220F331F441FAA1FA9F333D00E2E3AF01B
:10211000E0E830D091505040E695001CCAF729D035
:10212000FE2F27D0660F771F881FBB1F2617370784
:102130004807AB07B0E809F0BB0B802DBF01FF27B4
:1021400093585F4F2AF09E3F510568F0A3C0FDC031
:102150005F3FECF3983EDCF3869577956795B795EE
:10216000F7959F5FC9F7880F911D9695879597F909
:102170000895E1E0660F771F881FBB1F6217730782
:102180008407BA0720F0621B730B840BBA0BEE1F97
:1021900088F7E095089597FB0EF485D03EC0E8944B
:1021A00009C097FB3EF490958095709561957F4F9F
:1021B0008F4F9F4F9923A9F0F92F96E9BB2793954D
:1021C000F695879577956795B795F111F8CFFAF45D
:1021D000BB0F11F460FF1BC06F5F7F4F8F4F9F4F8E
:1021E00016C0882311F096E911C0772321F09EE8EC
:1021F000872F762F05C0662371F096E8862F70E052
:1022000060E02AF09A95660F771F881FDAF7880F2B
:102210009695879597F90895E894F92F96EBFF2303
:1022200081F0121613061406440B9395F6958795C4
:102230007795679557954040FF23B9F71BC09927BD
:102240000895882351F49850D2F7872B762F652F65
:10225000542F432F322F20E0B1F312161306140629
:10226000440B88233AF09A95440F551F661F771F39
:10227000881FCAF755234AF4440F551F11F460FF15
:1022800004C06F5F7F4F8F4F9F4F880F9695879544
:1022900097F9089597F99F6780E870E060E00895E6
:1022A0009FEF80EC0895909580957095609550957E
:1022B0004095309521953F4F4F4F5F4F6F4F7F4F68
:1022C0008F4F9F4F089500240A941616170618067C
:1022D0000906089500240A9412161306140605062A
:1022E0000895092E0394000C11F4882352F0BB0FBB
:1022F00040F4BF2B11F460FF04C06F5F7F4F8F4F1E
:102300009F4F089557FD9058440F551F59F05F3F58
:1023100071F04795880F97FB991F61F09F3F79F007
:1023200087950895121613061406551FF2CF469589
:10233000F1DF08C0161617061806991FF1CF86950B
:102340007105610508940895E894BB2766277727EF
:10235000CB0197F908950BD0C4CFB5DF28F0BADFD1
:1023600018F0952309F096CF9BCF1124EECFCADF4A
:10237000A0F3959FD1F3950F50E0551F629FF00198
:10238000729FBB27F00DB11D639FAA27F00DB11DF1
:10239000AA1F649F6627B00DA11D661F829F22277A
:1023A000B00DA11D621F739FB00DA11D621F839F01
:1023B000A00D611D221F749F3327A00D611D231FD7
:1023C000849F600D211D822F762F6A2F11249F5725
:1023D00050408AF0E1F088234AF0EE0FFF1FBB1F48
:1023E000661F771F881F91505040A9F79E3F5105E7
:1023F00070F050CFAACF5F3FECF3983EDCF38695A8
:1024000077956795B795F795E7959F5FC1F7FE2B91
:10241000880F911D9695879597F90895EF920F93E0
:102420001F93CF93DF93E80147FF02C034E101C05F
:1024300034E0E42FFF27E7FDF095F7FF03C0F195A7
:10244000E195F109E32E022F2E2FAE010E944D15CA
:10245000CE01DF91CF911F910F91EF900895CF930F
:10246000DF938230910510F482E090E0E091C202A7
:10247000F091C30220E030E0A0E0B0E0309739F105
:102480004081518148175907B8F04817590771F42E
:1024900082819381109729F013969C938E931297C3
:1024A0002CC09093C3028093C20227C0211531052E
:1024B00031F04217530718F0A901DB0101C0EF0109
:1024C0009A01BD01DF010280F381E02DD7CF2115F4
:1024D0003105F9F0281B390B2430310580F48A814D
:1024E0009B816115710521F0FB019383828304C0F8
:1024F0009093C3028093C202FE01329644C0FE0153
:10250000E20FF31F8193919322503109398328837D
:102510003AC02091C0023091C102232B41F4209196
:102520000201309103013093C1022093C002209137
:102530000001309101012115310541F42DB73EB75D
:102540004091040150910501241B350BE091C0021C
:10255000F091C102E217F307A0F42E1B3F0B2817DE
:10256000390778F0AC014E5F5F4F2417350748F00C
:102570004E0F5F1F5093C1024093C002819391930D
:1025800002C0E0E0F0E0CF01DF91CF910895CF935A
:10259000DF93009709F487C0FC01329713821282FF
:1025A000C091C202D091C302209781F42081318171
:1025B000280F391F8091C0029091C10282179307A2
:1025C00079F5F093C102E093C0026DC0DE0120E016
:1025D00030E0AE17BF0750F412964D915C911397FF
:1025E0009D014115510509F1DA01F3CFB383A283AF
:1025F00040815181840F951F8A179B0771F48D913B
:102600009C911197840F951F029691838083129657
:102610008D919C911397938382832115310529F421
:10262000F093C302E093C2023EC0D9011396FC931B
:10263000EE9312974D915D91A40FB51FEA17FB071A
:1026400079F480819181840F951F0296D9011196AA
:102650009C938E938281938113969C938E93129771
:10266000E0E0F0E08A819B81009719F0FE01EC0127
:10267000F9CFCE01029628813981820F931F2091D4
:10268000C0023091C1022817390769F4309729F444
:102690001092C3021092C20202C013821282D0931F
:1026A000C102C093C002DF91CF910895F8940C94B9
:1026B000061AAEE0B0E0EFE5F3E10C9473190D8972
:1026C0001E8986E08C831A8309838FEF9FE79E83A0
:1026D0008D83AE01475E5F4F6F89788DCE01019685
:1026E0000E947B13EF81F885E00FF11F10822E9678
:1026F000E4E00C948F19ACE0B0E0E1E8F3E10C9475
:1027000065197C016B018A01FC01178216828381A5
:1027100081FFBDC1CE0101964C01F7019381F60105
:1027200093FD859193FF81916F01882309F4ABC1DB
:10273000853239F493FD859193FF81916F01853244
:1027400029F4B70190E00E94B917E7CF512C312C42
:1027500020E02032A0F48B3269F030F4803259F05E
:10276000833269F420612CC08D3239F0803339F422
:10277000216026C02260246023C0286021C027FD7C
:1027800027C030ED380F3A3078F426FF06C0FAE063
:102790005F9E300D1124532E13C08AE0389E300DF9
:1027A0001124332E20620CC08E3221F426FD6BC121
:1027B000206406C08C3611F4206802C0883641F4CB
:1027C000F60193FD859193FF81916F018111C1CF36
:1027D000982F9F7D9554933028F40C5F1F4FFFE393
:1027E000F9830DC0833631F0833771F0833509F0FA
:1027F0005BC022C0F801808189830E5F1F4F442493
:102800004394512C540115C03801F2E06F0E711C35
:10281000F801A080B18026FF03C0652D70E002C0E2
:102820006FEF7FEFC5012C870E94AE172C0183014B
:102830002C852F77222E17C03801F2E06F0E711C05
:10284000F801A080B18026FF03C0652D70E002C0B2
:102850006FEF7FEFC5012C870E94A3172C012C85F9
:102860002068222E830123FC1BC0832D90E0481694
:102870005906B0F4B70180E290E00E94B9173A948B
:10288000F4CFF50127FC859127FE81915F01B70107
:1028900090E00E94B91731103A94F1E04F1A5108B4
:1028A0004114510471F7E5C0843611F0893639F5C9
:1028B000F80127FF07C060817181828193810C5FDD
:1028C0001F4F08C060817181882777FD8095982F00
:1028D0000E5F1F4F2F76B22E97FF09C090958095FF
:1028E000709561957F4F8F4F9F4F2068B22E2AE0E1
:1028F00030E0A4010E94EB17A82EA81844C0853729
:1029000029F42F7EB22E2AE030E025C0F22FF97F85
:10291000BF2E8F36C1F018F4883579F0B4C08037F7
:1029200019F0883721F0AFC02F2F2061B22EB4FEEE
:102930000DC08B2D8460B82E09C024FF0AC09F2FC4
:102940009660B92E06C028E030E005C020E130E0F6
:1029500002C020E132E0F801B7FE07C0608171815A
:10296000828193810C5F1F4F06C06081718180E07E
:1029700090E00E5F1F4FA4010E94EB17A82EA8182D
:10298000FB2DFF77BF2EB6FE0BC02B2D2E7FA5147F
:1029900050F4B4FE0AC0B2FC08C02B2D2E7E05C038
:1029A0007A2C2B2D03C07A2C01C0752C24FF0DC06E
:1029B000FE01EA0DF11D8081803311F4297E09C0EA
:1029C00022FF06C07394739404C0822F867809F0A6
:1029D000739423FD13C020FF06C05A2C731418F4FF
:1029E000530C5718732C731468F4B70180E290E00D
:1029F0002C870E94B91773942C85F5CF731410F4AB
:102A0000371801C0312C24FF12C0B70180E390E0D9
:102A10002C870E94B9172C8522FF17C021FF03C005
:102A200088E590E002C088E790E0B7010CC0822FF3
:102A3000867859F021FD02C080E201C08BE227FDBB
:102A40008DE2B70190E00E94B917A51438F4B701E0
:102A500080E390E00E94B9175A94F7CFAA94F4014A
:102A6000EA0DF11D8081B70190E00E94B917A11015
:102A7000F5CF332009F451CEB70180E290E00E94F7
:102A8000B9173A94F6CFF7018681978102C08FEF8C
:102A90009FEF2C96E2E10C9481196F927F929F92A6
:102AA000AF92BF92CF92DF92EF92FF920F931F935C
:102AB000CF93DF93CDB7DEB729970FB6F894DEBF7B
:102AC0000FBECDBF6A01B22E102F0C3320F4FF24AD
:102AD000F394F00E02C04CE3F42E0F2D27E0AE016C
:102AE0004F5F5F4F0E94CB167981272F29702130CD
:102AF00031F0E1FC06C0E0FC06C060E005C06DE21C
:102B000003C06BE201C060E2AE2DA07173FF36C05E
:102B1000662311F084E001C083E08B1510F4B81A2D
:102B200001C0B12CA1110BC0F6018B2D90E28823BE
:102B300019F091938150FBCFCB0CD11CB12C6623A3
:102B400031F0F601608396012F5F3F4F6901C601A6
:102B50000396E2FE05C02EE4F601208331E404C0B2
:102B60002EE6F601208331E631832283FC012B2DF2
:102B700030E22223F1F131932150FBCF72FF40C0AC
:102B8000662311F084E001C083E08B1510F4B81ABD
:102B900001C0B12CA1110BC0F6018B2D90E288234E
:102BA00019F091938150FBCFCB0CD11CB12C662333
:102BB00031F0F601608396012F5F3F4F6901C60136
:102BC0000396E2FE07C029E4F60120832EE4218368
:102BD00026E406C029E6F60120832EE6218326E6B8
:102BE0002283FC012B2D30E2222319F03193215056
:102BF000FBCFFC01EB0DF11D10828EEF9FEFB7C0F4
:102C0000B1E0611101C0B0E04B2F50E01816190679
:102C100024F49C012F5F3F4F02C021E030E0240FDD
:102C2000351F112329F0412F50E04F5F5F4F02C045
:102C300040E050E0420F531F2B2D30E04217530766
:102C400014F4B41A01C0B12C2E2D287159F4F601D8
:102C50002B2D30E2222319F031932150FBCFCB0CE6
:102C6000D11CB12CBB2331F0F601608396012F5F9C
:102C70003F4F6901A1110BC0F6012B2D30E3222338
:102C800019F031932150FBCFCB0CD11CB12CF80E95
:102C90000A81372F3071A32E74FF03C0013309F46A
:102CA000FA941F142CF42F2D293018F028E001C0BD
:102CB00021E0682F392F97FF02C060E030E0462FF7
:102CC000532F612C712C3EE2932EBC01621B7109C3
:102CD0009B01DC01A41BB50BE1E0F0E0EC0FFD1F54
:102CE000AE0FBF1FE12EF12CF194E194F1084F3F9C
:102CF000FFEF5F0731F4F6019082B6016F5F7F4FFF
:102D00006B01841795074CF02417350734F4BD0187
:102D1000660D771DFB01118101C010E3415051097F
:102D2000FFEF6F1A7F0AB6016F5F7F4F4E155F0589
:102D300024F0F60110836B01DACF4817590739F4F4
:102D4000063320F4053319F4A11001C011E3F60194
:102D50001083FB018B2D90E2882319F09193815011
:102D6000FBCFFB01EB0DF11D108280E090E0299676
:102D70000FB6F894DEBF0FBECDBFDF91CF911F918C
:102D80000F91FF90EF90DF90CF90BF90AF909F900A
:102D90007F906F900895283008F027E03327DA01FC
:102DA000990F311D87FD916000966105710539F419
:102DB00032602E5F3D9330E32A95E1F708959F3FFF
:102DC00030F080387105610509F03C5F3C5F3D9350
:102DD000913008F08068911DDF93CF931F930F937C
:102DE000FF92EF92192F987F9695E92F96959695D9
:102DF000E90FFF27E45EFE4F99273327EE24FF24D7
:102E0000A701E70105900894079428F4360FE71E00
:102E1000F81E491F511D660F771F881F991F0694C2
:102E2000A1F70590079428F4E70EF81E491F561FD6
:102E3000C11D770F881F991F661F0694A1F7059083
:102E4000079428F4F80E491F561FC71FD11D880F7D
:102E5000991F661F771F0694A1F70590079420F429
:102E6000490F561FC71FD81F990F661F771F881F4E
:102E70000694A9F784911095177041F0D695C795DF
:102E800057954795F794E7941A95C1F7E2ECF0E06F
:102E900068941590159135916591959105907FE213
:102EA0007395E118F10A430B560BC90BD009C0F713
:102EB000E10CF11E431F561FC91FD01D7EF4703355
:102EC00011F48A95E6CFE894015030F0080F0AF427
:102ED0000027021708F4202F2395022F7A3328F0B9
:102EE00079E37D932A95E9F710C07D932A9589F6B9
:102EF000069497956795379517951794E118F10AF9
:102F0000430B560BC90BD00998F023957E9173950E
:102F10007A3308F070E37C932013B8F77E917061E8
:102F20007D9330F0839571E37D9370E32A95E1F70B
:102F30001124EF90FF900F911F91CF91DF9199276E
:102F400087FD90950895FC01059061507040011037
:102F5000D8F7809590958E0F9F1F0895FC016150C2
:102F6000704001900110D8F7809590958E0F9F1FAB
:102F700008950F931F93CF93DF93182F092FEB0121
:102F80008B8181FD03C08FEF9FEF20C082FF10C0B7
:102F90004E815F812C813D81421753077CF4E8818B
:102FA000F9819F012F5F3F4F39832883108306C02B
:102FB000E885F985812F0995892B29F72E813F8195
:102FC0002F5F3F4F3F832E83812F902FDF91CF9133
:102FD0001F910F910895FA01AA27283051F120314D
:102FE00081F1E8946F936E7F6E5F7F4F8F4F9F4F9D
:102FF000AF4FB1E03ED0B4E03CD0670F781F891FDF
:103000009A1FA11D680F791F8A1F911DA11D6A0FAC
:10301000711D811D911DA11D20D009F468943F915F
:103020002AE0269F11243019305D3193DEF6CF015E
:103030000895462F4770405D4193B3E00FD0C9F724
:10304000F6CF462F4F70405D4A3318F0495D31FD91
:103050004052419302D0A9F7EACFB4E0A6959795E4
:10306000879577956795BA95C9F7009761057105BA
:1030700008959B01AC010A2E069457954795379504
:103080002795BA95C9F7620F731F841F951FA01D5E
:103090000895DB018F939F930E945918BF91AF91C0
:1030A000A29F800D911DA39F900DB29F900D1124A2
:1030B00008950E94F719A59F900DB49F900DA49FAD
:1030C000800D911D11240895B7FF0C9459180E948A
:1030D0005918821B930B0895DF93CF931F930F937F
:1030E0009A9DF02D219FF00D8B9DF00D8A9DE02D76
:1030F000F10D039FF00D029FE00DF11D4E9DE00DBF
:10310000F11D5E9DF00D4F9DF00D7F936F93BF926B
:10311000AF925F934F93D5010E94F7198B01AC01D9
:10312000D7010E94F719EB01E80FF91FD6010E94A1
:10313000BC182F913F91D6010E94F719C60FD71FD7
:10314000E81FF91FAF91BF910E94BC182F913F91CA
:103150000E94F719C60FD71FE81FF91FD6010E945A
:10316000F719E60FF71F9801BE01CF0111240F9147
:103170001F91CF91DF9108950E94F719460F571FB5
:10318000C81FD91F08F431960895689401C0E894C7
:10319000F92FF12B12F00C94F918A0E0B0E0E3ED58
:1031A000F8E10C946B19092E059422F40E9455192C
:1031B000112392F4F0E80F26FFEFE094F0940095CD
:1031C0001095B094C094D094A194BF0ACF0ADF0A9E
:1031D000EF0AFF0A0F0B1F0B0E94041907FC0E9445
:1031E0005519CDB7DEB7ECE00C948719689401C08F
:1031F000E8948F929F92CF93DF930E940419DF91FE
:10320000CF919F908F90089588249924F401E40130
:10321000B0E49F93AA279A158B049C04ED05FE0544
:10322000CF05D007A10798F4AD2FDC2FCF2FFE2FAD
:10323000E92D982C892E982F872F762F652F542FC4
:10324000432F322F2227B85031F7BF9127C01B2EB2
:10325000BF91BB27220F331F441F551F661F771FC7
:10326000881F991F881C991CEE1FFF1FCC1FDD1F94
:10327000AA1FBB1F8A149B04EC05FD05CE05DF05C4
:10328000A007B10748F08A189B08EC09FD09CE0990
:10329000DF09A00BB10B21601A94E1F62EF4940122
:1032A000AF01BE01CD01000C089560957095809529
:1032B000909530954095509521953F4F4F4F5F4FDA
:1032C0006F4F7F4F8F4F9F4F08952F923F924F9296
:1032D0005F926F927F928F929F92AF92BF92CF92A6
:1032E000DF92EF92FF920F931F93CF93DF93CDB7AF
:1032F000DEB7CA1BDB0B0FB6F894DEBF0FBECDBF27
:1033000009942A88398848885F846E847D848C84F7
:103310009B84AA84B984C884DF80EE80FD800C8100
:103320001B81AA81B981CE0FD11D0FB6F894DEBFE3
:103330000FBECDBFED0108950F93083090F0982F88
:10334000872F762F652F542F432F322F2227085097
:10335000F4CF220F331F441F551F661F771F881F8E
:10336000991F0A95B2F70F91089597FB10F81694DC
:1033700000080F93083098F00850232F342F452F62
:10338000562F672F782F892F902DF4CF059497957E
:1033900087957795679557954795379527950A951A
:1033A000AAF70F9108952A0D3B1D4C1D5D1D6E1D42
:1033B0007F1D801F911F08952A193B094C095D0943
:1033C0006E097F09800B910B08950024A7FD0094DE
:1033D0002A173005400550056005700580059005E9
:1033E0000895EE0FFF1F0590F491E02D0994A29F20
:1033F000B001B39FC001A39F700D811D1124911DC9
:10340000B29F700D811D1124911D0895F894FFCF76
:103410000000C40280000101A202A20200004000DC
:1034200014005400424D453238303A2063686563D9
:103430006B20776972696E67004D6574656F2076E1
:10344000302E3100257343202D2025734800202085
:1034500020257320685061003234682050726573F3
:10346000732045766F6C3A000D0A006E616E00693C
:103470006E66006F7666002E0000000000860CCBA2
:1034800004000000007F0D520D270D2F0D420D513D
:023490000D002D
:00000001FF
